{"abi":[{"inputs":[{"internalType":"address","name":"creator","type":"address"}],"stateMutability":"nonpayable","type":"constructor"},{"inputs":[{"internalType":"string","name":"dexId","type":"string"}],"name":"collect","outputs":[],"stateMutability":"nonpayable","type":"function"},{"inputs":[],"name":"collectionTotal","outputs":[{"internalType":"uint256","name":"","type":"uint256"}],"stateMutability":"view","type":"function"},{"inputs":[{"internalType":"string","name":"dexId","type":"string"}],"name":"hasCollected","outputs":[{"internalType":"bool","name":"","type":"bool"}],"stateMutability":"view","type":"function"},{"inputs":[],"name":"isTrainer","outputs":[{"internalType":"bool","name":"","type":"bool"}],"stateMutability":"view","type":"function"},{"inputs":[],"name":"trainer","outputs":[{"internalType":"address","name":"","type":"address"}],"stateMutability":"view","type":"function"}],"devdoc":{"kind":"dev","methods":{},"version":1},"evm":{"assembly":"    /* \"Pokedex.sol\":737:1478  contract Pokedex {... */\n  mstore(0x40, 0x80)\n    /* \"Pokedex.sol\":947:1029  constructor(address creator) {... */\n  callvalue\n  dup1\n  iszero\n  tag_1\n  jumpi\n  0x00\n  dup1\n  revert\ntag_1:\n  pop\n  mload(0x40)\n  sub(codesize, bytecodeSize)\n  dup1\n  bytecodeSize\n  dup4\n  codecopy\n  dup2\n  dup2\n  add\n  0x40\n  mstore\n  dup2\n  add\n  swap1\n  tag_2\n  swap2\n  swap1\n  tag_3\n  jump\t// in\ntag_2:\n    /* \"Pokedex.sol\":992:999  creator */\n  dup1\n    /* \"Pokedex.sol\":982:989  trainer */\n  0x01\n  0x00\n    /* \"Pokedex.sol\":982:999  trainer = creator */\n  0x0100\n  exp\n  dup2\n  sload\n  dup2\n  0xffffffffffffffffffffffffffffffffffffffff\n  mul\n  not\n  and\n  swap1\n  dup4\n  0xffffffffffffffffffffffffffffffffffffffff\n  and\n  mul\n  or\n  swap1\n  sstore\n  pop\n    /* \"Pokedex.sol\":1023:1024  0 */\n  0x00\n    /* \"Pokedex.sol\":1005:1020  collectionTotal */\n  0x02\n    /* \"Pokedex.sol\":1005:1024  collectionTotal = 0 */\n  dup2\n  swap1\n  sstore\n  pop\n    /* \"Pokedex.sol\":947:1029  constructor(address creator) {... */\n  pop\n    /* \"Pokedex.sol\":737:1478  contract Pokedex {... */\n  jump(tag_6)\n    /* \"#utility.yul\":88:205   */\ntag_8:\n    /* \"#utility.yul\":197:198   */\n  0x00\n    /* \"#utility.yul\":194:195   */\n  dup1\n    /* \"#utility.yul\":187:199   */\n  revert\n    /* \"#utility.yul\":334:460   */\ntag_10:\n    /* \"#utility.yul\":371:378   */\n  0x00\n    /* \"#utility.yul\":411:453   */\n  0xffffffffffffffffffffffffffffffffffffffff\n    /* \"#utility.yul\":404:409   */\n  dup3\n    /* \"#utility.yul\":400:454   */\n  and\n    /* \"#utility.yul\":389:454   */\n  swap1\n  pop\n    /* \"#utility.yul\":334:460   */\n  swap2\n  swap1\n  pop\n  jump\t// out\n    /* \"#utility.yul\":466:562   */\ntag_11:\n    /* \"#utility.yul\":503:510   */\n  0x00\n    /* \"#utility.yul\":532:556   */\n  tag_20\n    /* \"#utility.yul\":550:555   */\n  dup3\n    /* \"#utility.yul\":532:556   */\n  tag_10\n  jump\t// in\ntag_20:\n    /* \"#utility.yul\":521:556   */\n  swap1\n  pop\n    /* \"#utility.yul\":466:562   */\n  swap2\n  swap1\n  pop\n  jump\t// out\n    /* \"#utility.yul\":568:690   */\ntag_12:\n    /* \"#utility.yul\":641:665   */\n  tag_22\n    /* \"#utility.yul\":659:664   */\n  dup2\n    /* \"#utility.yul\":641:665   */\n  tag_11\n  jump\t// in\ntag_22:\n    /* \"#utility.yul\":634:639   */\n  dup2\n    /* \"#utility.yul\":631:666   */\n  eq\n    /* \"#utility.yul\":621:684   */\n  tag_23\n  jumpi\n    /* \"#utility.yul\":680:681   */\n  0x00\n    /* \"#utility.yul\":677:678   */\n  dup1\n    /* \"#utility.yul\":670:682   */\n  revert\n    /* \"#utility.yul\":621:684   */\ntag_23:\n    /* \"#utility.yul\":568:690   */\n  pop\n  jump\t// out\n    /* \"#utility.yul\":696:839   */\ntag_13:\n    /* \"#utility.yul\":753:758   */\n  0x00\n    /* \"#utility.yul\":784:790   */\n  dup2\n    /* \"#utility.yul\":778:791   */\n  mload\n    /* \"#utility.yul\":769:791   */\n  swap1\n  pop\n    /* \"#utility.yul\":800:833   */\n  tag_25\n    /* \"#utility.yul\":827:832   */\n  dup2\n    /* \"#utility.yul\":800:833   */\n  tag_12\n  jump\t// in\ntag_25:\n    /* \"#utility.yul\":696:839   */\n  swap3\n  swap2\n  pop\n  pop\n  jump\t// out\n    /* \"#utility.yul\":845:1196   */\ntag_3:\n    /* \"#utility.yul\":915:921   */\n  0x00\n    /* \"#utility.yul\":964:966   */\n  0x20\n    /* \"#utility.yul\":952:961   */\n  dup3\n    /* \"#utility.yul\":943:950   */\n  dup5\n    /* \"#utility.yul\":939:962   */\n  sub\n    /* \"#utility.yul\":935:967   */\n  slt\n    /* \"#utility.yul\":932:1051   */\n  iszero\n  tag_27\n  jumpi\n    /* \"#utility.yul\":970:1049   */\n  tag_28\n  tag_8\n  jump\t// in\ntag_28:\n    /* \"#utility.yul\":932:1051   */\ntag_27:\n    /* \"#utility.yul\":1090:1091   */\n  0x00\n    /* \"#utility.yul\":1115:1179   */\n  tag_29\n    /* \"#utility.yul\":1171:1178   */\n  dup5\n    /* \"#utility.yul\":1162:1168   */\n  dup3\n    /* \"#utility.yul\":1151:1160   */\n  dup6\n    /* \"#utility.yul\":1147:1169   */\n  add\n    /* \"#utility.yul\":1115:1179   */\n  tag_13\n  jump\t// in\ntag_29:\n    /* \"#utility.yul\":1105:1179   */\n  swap2\n  pop\n    /* \"#utility.yul\":1061:1189   */\n  pop\n    /* \"#utility.yul\":845:1196   */\n  swap3\n  swap2\n  pop\n  pop\n  jump\t// out\n    /* \"Pokedex.sol\":737:1478  contract Pokedex {... */\ntag_6:\n  dataSize(sub_0)\n  dup1\n  dataOffset(sub_0)\n  0x00\n  codecopy\n  0x00\n  return\nstop\n\nsub_0: assembly {\n        /* \"Pokedex.sol\":737:1478  contract Pokedex {... */\n      mstore(0x40, 0x80)\n      callvalue\n      dup1\n      iszero\n      tag_1\n      jumpi\n      0x00\n      dup1\n      revert\n    tag_1:\n      pop\n      jumpi(tag_2, lt(calldatasize, 0x04))\n      shr(0xe0, calldataload(0x00))\n      dup1\n      0x4cafdb6d\n      eq\n      tag_3\n      jumpi\n      dup1\n      0x5443a0ce\n      eq\n      tag_4\n      jumpi\n      dup1\n      0x667bd3ca\n      eq\n      tag_5\n      jumpi\n      dup1\n      0x8bf3f624\n      eq\n      tag_6\n      jumpi\n      dup1\n      0xbab861c1\n      eq\n      tag_7\n      jumpi\n    tag_2:\n      0x00\n      dup1\n      revert\n        /* \"Pokedex.sol\":840:867  uint public collectionTotal */\n    tag_3:\n      tag_8\n      tag_9\n      jump\t// in\n    tag_8:\n      mload(0x40)\n      tag_10\n      swap2\n      swap1\n      tag_11\n      jump\t// in\n    tag_10:\n      mload(0x40)\n      dup1\n      swap2\n      sub\n      swap1\n      return\n        /* \"Pokedex.sol\":1389:1476  function isTrainer() public view returns (bool) {... */\n    tag_4:\n      tag_12\n      tag_13\n      jump\t// in\n    tag_12:\n      mload(0x40)\n      tag_14\n      swap2\n      swap1\n      tag_15\n      jump\t// in\n    tag_14:\n      mload(0x40)\n      dup1\n      swap2\n      sub\n      swap1\n      return\n        /* \"Pokedex.sol\":1033:1264  function collect(string memory dexId) public trainerOnly {... */\n    tag_5:\n      tag_16\n      0x04\n      dup1\n      calldatasize\n      sub\n      dup2\n      add\n      swap1\n      tag_17\n      swap2\n      swap1\n      tag_18\n      jump\t// in\n    tag_17:\n      tag_19\n      jump\t// in\n    tag_16:\n      stop\n        /* \"Pokedex.sol\":1268:1385  function hasCollected(string memory dexId) public view trainerOnly returns (bool) {... */\n    tag_6:\n      tag_20\n      0x04\n      dup1\n      calldatasize\n      sub\n      dup2\n      add\n      swap1\n      tag_21\n      swap2\n      swap1\n      tag_18\n      jump\t// in\n    tag_21:\n      tag_22\n      jump\t// in\n    tag_20:\n      mload(0x40)\n      tag_23\n      swap2\n      swap1\n      tag_15\n      jump\t// in\n    tag_23:\n      mload(0x40)\n      dup1\n      swap2\n      sub\n      swap1\n      return\n        /* \"Pokedex.sol\":814:836  address public trainer */\n    tag_7:\n      tag_24\n      tag_25\n      jump\t// in\n    tag_24:\n      mload(0x40)\n      tag_26\n      swap2\n      swap1\n      tag_27\n      jump\t// in\n    tag_26:\n      mload(0x40)\n      dup1\n      swap2\n      sub\n      swap1\n      return\n        /* \"Pokedex.sol\":840:867  uint public collectionTotal */\n    tag_9:\n      sload(0x02)\n      dup2\n      jump\t// out\n        /* \"Pokedex.sol\":1389:1476  function isTrainer() public view returns (bool) {... */\n    tag_13:\n        /* \"Pokedex.sol\":1431:1435  bool */\n      0x00\n        /* \"Pokedex.sol\":1461:1471  msg.sender */\n      caller\n        /* \"Pokedex.sol\":1450:1471  trainer == msg.sender */\n      0xffffffffffffffffffffffffffffffffffffffff\n      and\n        /* \"Pokedex.sol\":1450:1457  trainer */\n      0x01\n      0x00\n      swap1\n      sload\n      swap1\n      0x0100\n      exp\n      swap1\n      div\n      0xffffffffffffffffffffffffffffffffffffffff\n      and\n        /* \"Pokedex.sol\":1450:1471  trainer == msg.sender */\n      0xffffffffffffffffffffffffffffffffffffffff\n      and\n      eq\n        /* \"Pokedex.sol\":1443:1471  return trainer == msg.sender */\n      swap1\n      pop\n        /* \"Pokedex.sol\":1389:1476  function isTrainer() public view returns (bool) {... */\n      swap1\n      jump\t// out\n        /* \"Pokedex.sol\":1033:1264  function collect(string memory dexId) public trainerOnly {... */\n    tag_19:\n        /* \"Pokedex.sol\":923:930  trainer */\n      0x01\n      0x00\n      swap1\n      sload\n      swap1\n      0x0100\n      exp\n      swap1\n      div\n      0xffffffffffffffffffffffffffffffffffffffff\n      and\n        /* \"Pokedex.sol\":909:930  msg.sender == trainer */\n      0xffffffffffffffffffffffffffffffffffffffff\n      and\n        /* \"Pokedex.sol\":909:919  msg.sender */\n      caller\n        /* \"Pokedex.sol\":909:930  msg.sender == trainer */\n      0xffffffffffffffffffffffffffffffffffffffff\n      and\n      eq\n        /* \"Pokedex.sol\":901:931  require(msg.sender == trainer) */\n      tag_30\n      jumpi\n      0x00\n      dup1\n      revert\n    tag_30:\n        /* \"Pokedex.sol\":1155:1165  collection */\n      0x00\n        /* \"Pokedex.sol\":1166:1171  dexId */\n      dup2\n        /* \"Pokedex.sol\":1155:1172  collection[dexId] */\n      mload(0x40)\n      tag_32\n      swap2\n      swap1\n      tag_33\n      jump\t// in\n    tag_32:\n      swap1\n      dup2\n      mstore\n      0x20\n      add\n      mload(0x40)\n      dup1\n      swap2\n      sub\n      swap1\n      keccak256\n      0x00\n      swap1\n      sload\n      swap1\n      0x0100\n      exp\n      swap1\n      div\n      0xff\n      and\n        /* \"Pokedex.sol\":1154:1172  !collection[dexId] */\n      iszero\n        /* \"Pokedex.sol\":1146:1173  require(!collection[dexId]) */\n      tag_34\n      jumpi\n      0x00\n      dup1\n      revert\n    tag_34:\n        /* \"Pokedex.sol\":1232:1236  true */\n      0x01\n        /* \"Pokedex.sol\":1212:1222  collection */\n      0x00\n        /* \"Pokedex.sol\":1223:1228  dexId */\n      dup3\n        /* \"Pokedex.sol\":1212:1229  collection[dexId] */\n      mload(0x40)\n      tag_35\n      swap2\n      swap1\n      tag_33\n      jump\t// in\n    tag_35:\n      swap1\n      dup2\n      mstore\n      0x20\n      add\n      mload(0x40)\n      dup1\n      swap2\n      sub\n      swap1\n      keccak256\n      0x00\n        /* \"Pokedex.sol\":1212:1236  collection[dexId] = true */\n      0x0100\n      exp\n      dup2\n      sload\n      dup2\n      0xff\n      mul\n      not\n      and\n      swap1\n      dup4\n      iszero\n      iszero\n      mul\n      or\n      swap1\n      sstore\n      pop\n        /* \"Pokedex.sol\":1242:1257  collectionTotal */\n      0x02\n      0x00\n        /* \"Pokedex.sol\":1242:1259  collectionTotal++ */\n      dup2\n      sload\n      dup1\n      swap3\n      swap2\n      swap1\n      tag_36\n      swap1\n      tag_37\n      jump\t// in\n    tag_36:\n      swap2\n      swap1\n      pop\n      sstore\n      pop\n        /* \"Pokedex.sol\":1033:1264  function collect(string memory dexId) public trainerOnly {... */\n      pop\n      jump\t// out\n        /* \"Pokedex.sol\":1268:1385  function hasCollected(string memory dexId) public view trainerOnly returns (bool) {... */\n    tag_22:\n        /* \"Pokedex.sol\":1344:1348  bool */\n      0x00\n        /* \"Pokedex.sol\":923:930  trainer */\n      0x01\n      0x00\n      swap1\n      sload\n      swap1\n      0x0100\n      exp\n      swap1\n      div\n      0xffffffffffffffffffffffffffffffffffffffff\n      and\n        /* \"Pokedex.sol\":909:930  msg.sender == trainer */\n      0xffffffffffffffffffffffffffffffffffffffff\n      and\n        /* \"Pokedex.sol\":909:919  msg.sender */\n      caller\n        /* \"Pokedex.sol\":909:930  msg.sender == trainer */\n      0xffffffffffffffffffffffffffffffffffffffff\n      and\n      eq\n        /* \"Pokedex.sol\":901:931  require(msg.sender == trainer) */\n      tag_39\n      jumpi\n      0x00\n      dup1\n      revert\n    tag_39:\n        /* \"Pokedex.sol\":1363:1373  collection */\n      0x00\n        /* \"Pokedex.sol\":1374:1379  dexId */\n      dup3\n        /* \"Pokedex.sol\":1363:1380  collection[dexId] */\n      mload(0x40)\n      tag_41\n      swap2\n      swap1\n      tag_33\n      jump\t// in\n    tag_41:\n      swap1\n      dup2\n      mstore\n      0x20\n      add\n      mload(0x40)\n      dup1\n      swap2\n      sub\n      swap1\n      keccak256\n      0x00\n      swap1\n      sload\n      swap1\n      0x0100\n      exp\n      swap1\n      div\n      0xff\n      and\n        /* \"Pokedex.sol\":1356:1380  return collection[dexId] */\n      swap1\n      pop\n        /* \"Pokedex.sol\":1268:1385  function hasCollected(string memory dexId) public view trainerOnly returns (bool) {... */\n      swap2\n      swap1\n      pop\n      jump\t// out\n        /* \"Pokedex.sol\":814:836  address public trainer */\n    tag_25:\n      0x01\n      0x00\n      swap1\n      sload\n      swap1\n      0x0100\n      exp\n      swap1\n      div\n      0xffffffffffffffffffffffffffffffffffffffff\n      and\n      dup2\n      jump\t// out\n        /* \"#utility.yul\":7:84   */\n    tag_42:\n        /* \"#utility.yul\":44:51   */\n      0x00\n        /* \"#utility.yul\":73:78   */\n      dup2\n        /* \"#utility.yul\":62:78   */\n      swap1\n      pop\n        /* \"#utility.yul\":7:84   */\n      swap2\n      swap1\n      pop\n      jump\t// out\n        /* \"#utility.yul\":90:208   */\n    tag_43:\n        /* \"#utility.yul\":177:201   */\n      tag_70\n        /* \"#utility.yul\":195:200   */\n      dup2\n        /* \"#utility.yul\":177:201   */\n      tag_42\n      jump\t// in\n    tag_70:\n        /* \"#utility.yul\":172:175   */\n      dup3\n        /* \"#utility.yul\":165:202   */\n      mstore\n        /* \"#utility.yul\":90:208   */\n      pop\n      pop\n      jump\t// out\n        /* \"#utility.yul\":214:436   */\n    tag_11:\n        /* \"#utility.yul\":307:311   */\n      0x00\n        /* \"#utility.yul\":345:347   */\n      0x20\n        /* \"#utility.yul\":334:343   */\n      dup3\n        /* \"#utility.yul\":330:348   */\n      add\n        /* \"#utility.yul\":322:348   */\n      swap1\n      pop\n        /* \"#utility.yul\":358:429   */\n      tag_72\n        /* \"#utility.yul\":426:427   */\n      0x00\n        /* \"#utility.yul\":415:424   */\n      dup4\n        /* \"#utility.yul\":411:428   */\n      add\n        /* \"#utility.yul\":402:408   */\n      dup5\n        /* \"#utility.yul\":358:429   */\n      tag_43\n      jump\t// in\n    tag_72:\n        /* \"#utility.yul\":214:436   */\n      swap3\n      swap2\n      pop\n      pop\n      jump\t// out\n        /* \"#utility.yul\":442:532   */\n    tag_44:\n        /* \"#utility.yul\":476:483   */\n      0x00\n        /* \"#utility.yul\":519:524   */\n      dup2\n        /* \"#utility.yul\":512:525   */\n      iszero\n        /* \"#utility.yul\":505:526   */\n      iszero\n        /* \"#utility.yul\":494:526   */\n      swap1\n      pop\n        /* \"#utility.yul\":442:532   */\n      swap2\n      swap1\n      pop\n      jump\t// out\n        /* \"#utility.yul\":538:647   */\n    tag_45:\n        /* \"#utility.yul\":619:640   */\n      tag_75\n        /* \"#utility.yul\":634:639   */\n      dup2\n        /* \"#utility.yul\":619:640   */\n      tag_44\n      jump\t// in\n    tag_75:\n        /* \"#utility.yul\":614:617   */\n      dup3\n        /* \"#utility.yul\":607:641   */\n      mstore\n        /* \"#utility.yul\":538:647   */\n      pop\n      pop\n      jump\t// out\n        /* \"#utility.yul\":653:863   */\n    tag_15:\n        /* \"#utility.yul\":740:744   */\n      0x00\n        /* \"#utility.yul\":778:780   */\n      0x20\n        /* \"#utility.yul\":767:776   */\n      dup3\n        /* \"#utility.yul\":763:781   */\n      add\n        /* \"#utility.yul\":755:781   */\n      swap1\n      pop\n        /* \"#utility.yul\":791:856   */\n      tag_77\n        /* \"#utility.yul\":853:854   */\n      0x00\n        /* \"#utility.yul\":842:851   */\n      dup4\n        /* \"#utility.yul\":838:855   */\n      add\n        /* \"#utility.yul\":829:835   */\n      dup5\n        /* \"#utility.yul\":791:856   */\n      tag_45\n      jump\t// in\n    tag_77:\n        /* \"#utility.yul\":653:863   */\n      swap3\n      swap2\n      pop\n      pop\n      jump\t// out\n        /* \"#utility.yul\":869:944   */\n    tag_46:\n        /* \"#utility.yul\":902:908   */\n      0x00\n        /* \"#utility.yul\":935:937   */\n      0x40\n        /* \"#utility.yul\":929:938   */\n      mload\n        /* \"#utility.yul\":919:938   */\n      swap1\n      pop\n        /* \"#utility.yul\":869:944   */\n      swap1\n      jump\t// out\n        /* \"#utility.yul\":950:1067   */\n    tag_47:\n        /* \"#utility.yul\":1059:1060   */\n      0x00\n        /* \"#utility.yul\":1056:1057   */\n      dup1\n        /* \"#utility.yul\":1049:1061   */\n      revert\n        /* \"#utility.yul\":1073:1190   */\n    tag_48:\n        /* \"#utility.yul\":1182:1183   */\n      0x00\n        /* \"#utility.yul\":1179:1180   */\n      dup1\n        /* \"#utility.yul\":1172:1184   */\n      revert\n        /* \"#utility.yul\":1196:1313   */\n    tag_49:\n        /* \"#utility.yul\":1305:1306   */\n      0x00\n        /* \"#utility.yul\":1302:1303   */\n      dup1\n        /* \"#utility.yul\":1295:1307   */\n      revert\n        /* \"#utility.yul\":1319:1436   */\n    tag_50:\n        /* \"#utility.yul\":1428:1429   */\n      0x00\n        /* \"#utility.yul\":1425:1426   */\n      dup1\n        /* \"#utility.yul\":1418:1430   */\n      revert\n        /* \"#utility.yul\":1442:1544   */\n    tag_51:\n        /* \"#utility.yul\":1483:1489   */\n      0x00\n        /* \"#utility.yul\":1534:1536   */\n      0x1f\n        /* \"#utility.yul\":1530:1537   */\n      not\n        /* \"#utility.yul\":1525:1527   */\n      0x1f\n        /* \"#utility.yul\":1518:1523   */\n      dup4\n        /* \"#utility.yul\":1514:1528   */\n      add\n        /* \"#utility.yul\":1510:1538   */\n      and\n        /* \"#utility.yul\":1500:1538   */\n      swap1\n      pop\n        /* \"#utility.yul\":1442:1544   */\n      swap2\n      swap1\n      pop\n      jump\t// out\n        /* \"#utility.yul\":1550:1730   */\n    tag_52:\n        /* \"#utility.yul\":1598:1675   */\n      0x4e487b7100000000000000000000000000000000000000000000000000000000\n        /* \"#utility.yul\":1595:1596   */\n      0x00\n        /* \"#utility.yul\":1588:1676   */\n      mstore\n        /* \"#utility.yul\":1695:1699   */\n      0x41\n        /* \"#utility.yul\":1692:1693   */\n      0x04\n        /* \"#utility.yul\":1685:1700   */\n      mstore\n        /* \"#utility.yul\":1719:1723   */\n      0x24\n        /* \"#utility.yul\":1716:1717   */\n      0x00\n        /* \"#utility.yul\":1709:1724   */\n      revert\n        /* \"#utility.yul\":1736:2017   */\n    tag_53:\n        /* \"#utility.yul\":1819:1846   */\n      tag_86\n        /* \"#utility.yul\":1841:1845   */\n      dup3\n        /* \"#utility.yul\":1819:1846   */\n      tag_51\n      jump\t// in\n    tag_86:\n        /* \"#utility.yul\":1811:1817   */\n      dup2\n        /* \"#utility.yul\":1807:1847   */\n      add\n        /* \"#utility.yul\":1949:1955   */\n      dup2\n        /* \"#utility.yul\":1937:1947   */\n      dup2\n        /* \"#utility.yul\":1934:1956   */\n      lt\n        /* \"#utility.yul\":1913:1931   */\n      0xffffffffffffffff\n        /* \"#utility.yul\":1901:1911   */\n      dup3\n        /* \"#utility.yul\":1898:1932   */\n      gt\n        /* \"#utility.yul\":1895:1957   */\n      or\n        /* \"#utility.yul\":1892:1980   */\n      iszero\n      tag_87\n      jumpi\n        /* \"#utility.yul\":1960:1978   */\n      tag_88\n      tag_52\n      jump\t// in\n    tag_88:\n        /* \"#utility.yul\":1892:1980   */\n    tag_87:\n        /* \"#utility.yul\":2000:2010   */\n      dup1\n        /* \"#utility.yul\":1996:1998   */\n      0x40\n        /* \"#utility.yul\":1989:2011   */\n      mstore\n        /* \"#utility.yul\":1779:2017   */\n      pop\n        /* \"#utility.yul\":1736:2017   */\n      pop\n      pop\n      jump\t// out\n        /* \"#utility.yul\":2023:2152   */\n    tag_54:\n        /* \"#utility.yul\":2057:2063   */\n      0x00\n        /* \"#utility.yul\":2084:2104   */\n      tag_90\n      tag_46\n      jump\t// in\n    tag_90:\n        /* \"#utility.yul\":2074:2104   */\n      swap1\n      pop\n        /* \"#utility.yul\":2113:2146   */\n      tag_91\n        /* \"#utility.yul\":2141:2145   */\n      dup3\n        /* \"#utility.yul\":2133:2139   */\n      dup3\n        /* \"#utility.yul\":2113:2146   */\n      tag_53\n      jump\t// in\n    tag_91:\n        /* \"#utility.yul\":2023:2152   */\n      swap2\n      swap1\n      pop\n      jump\t// out\n        /* \"#utility.yul\":2158:2466   */\n    tag_55:\n        /* \"#utility.yul\":2220:2224   */\n      0x00\n        /* \"#utility.yul\":2310:2328   */\n      0xffffffffffffffff\n        /* \"#utility.yul\":2302:2308   */\n      dup3\n        /* \"#utility.yul\":2299:2329   */\n      gt\n        /* \"#utility.yul\":2296:2352   */\n      iszero\n      tag_93\n      jumpi\n        /* \"#utility.yul\":2332:2350   */\n      tag_94\n      tag_52\n      jump\t// in\n    tag_94:\n        /* \"#utility.yul\":2296:2352   */\n    tag_93:\n        /* \"#utility.yul\":2370:2399   */\n      tag_95\n        /* \"#utility.yul\":2392:2398   */\n      dup3\n        /* \"#utility.yul\":2370:2399   */\n      tag_51\n      jump\t// in\n    tag_95:\n        /* \"#utility.yul\":2362:2399   */\n      swap1\n      pop\n        /* \"#utility.yul\":2454:2458   */\n      0x20\n        /* \"#utility.yul\":2448:2452   */\n      dup2\n        /* \"#utility.yul\":2444:2459   */\n      add\n        /* \"#utility.yul\":2436:2459   */\n      swap1\n      pop\n        /* \"#utility.yul\":2158:2466   */\n      swap2\n      swap1\n      pop\n      jump\t// out\n        /* \"#utility.yul\":2472:2620   */\n    tag_56:\n        /* \"#utility.yul\":2570:2576   */\n      dup3\n        /* \"#utility.yul\":2565:2568   */\n      dup2\n        /* \"#utility.yul\":2560:2563   */\n      dup4\n        /* \"#utility.yul\":2547:2577   */\n      calldatacopy\n        /* \"#utility.yul\":2611:2612   */\n      0x00\n        /* \"#utility.yul\":2602:2608   */\n      dup4\n        /* \"#utility.yul\":2597:2600   */\n      dup4\n        /* \"#utility.yul\":2593:2609   */\n      add\n        /* \"#utility.yul\":2586:2613   */\n      mstore\n        /* \"#utility.yul\":2472:2620   */\n      pop\n      pop\n      pop\n      jump\t// out\n        /* \"#utility.yul\":2626:3051   */\n    tag_57:\n        /* \"#utility.yul\":2704:2709   */\n      0x00\n        /* \"#utility.yul\":2729:2795   */\n      tag_98\n        /* \"#utility.yul\":2745:2794   */\n      tag_99\n        /* \"#utility.yul\":2787:2793   */\n      dup5\n        /* \"#utility.yul\":2745:2794   */\n      tag_55\n      jump\t// in\n    tag_99:\n        /* \"#utility.yul\":2729:2795   */\n      tag_54\n      jump\t// in\n    tag_98:\n        /* \"#utility.yul\":2720:2795   */\n      swap1\n      pop\n        /* \"#utility.yul\":2818:2824   */\n      dup3\n        /* \"#utility.yul\":2811:2816   */\n      dup2\n        /* \"#utility.yul\":2804:2825   */\n      mstore\n        /* \"#utility.yul\":2856:2860   */\n      0x20\n        /* \"#utility.yul\":2849:2854   */\n      dup2\n        /* \"#utility.yul\":2845:2861   */\n      add\n        /* \"#utility.yul\":2894:2897   */\n      dup5\n        /* \"#utility.yul\":2885:2891   */\n      dup5\n        /* \"#utility.yul\":2880:2883   */\n      dup5\n        /* \"#utility.yul\":2876:2892   */\n      add\n        /* \"#utility.yul\":2873:2898   */\n      gt\n        /* \"#utility.yul\":2870:2982   */\n      iszero\n      tag_100\n      jumpi\n        /* \"#utility.yul\":2901:2980   */\n      tag_101\n      tag_50\n      jump\t// in\n    tag_101:\n        /* \"#utility.yul\":2870:2982   */\n    tag_100:\n        /* \"#utility.yul\":2991:3045   */\n      tag_102\n        /* \"#utility.yul\":3038:3044   */\n      dup5\n        /* \"#utility.yul\":3033:3036   */\n      dup3\n        /* \"#utility.yul\":3028:3031   */\n      dup6\n        /* \"#utility.yul\":2991:3045   */\n      tag_56\n      jump\t// in\n    tag_102:\n        /* \"#utility.yul\":2710:3051   */\n      pop\n        /* \"#utility.yul\":2626:3051   */\n      swap4\n      swap3\n      pop\n      pop\n      pop\n      jump\t// out\n        /* \"#utility.yul\":3071:3411   */\n    tag_58:\n        /* \"#utility.yul\":3127:3132   */\n      0x00\n        /* \"#utility.yul\":3176:3179   */\n      dup3\n        /* \"#utility.yul\":3169:3173   */\n      0x1f\n        /* \"#utility.yul\":3161:3167   */\n      dup4\n        /* \"#utility.yul\":3157:3174   */\n      add\n        /* \"#utility.yul\":3153:3180   */\n      slt\n        /* \"#utility.yul\":3143:3265   */\n      tag_104\n      jumpi\n        /* \"#utility.yul\":3184:3263   */\n      tag_105\n      tag_49\n      jump\t// in\n    tag_105:\n        /* \"#utility.yul\":3143:3265   */\n    tag_104:\n        /* \"#utility.yul\":3301:3307   */\n      dup2\n        /* \"#utility.yul\":3288:3308   */\n      calldataload\n        /* \"#utility.yul\":3326:3405   */\n      tag_106\n        /* \"#utility.yul\":3401:3404   */\n      dup5\n        /* \"#utility.yul\":3393:3399   */\n      dup3\n        /* \"#utility.yul\":3386:3390   */\n      0x20\n        /* \"#utility.yul\":3378:3384   */\n      dup7\n        /* \"#utility.yul\":3374:3391   */\n      add\n        /* \"#utility.yul\":3326:3405   */\n      tag_57\n      jump\t// in\n    tag_106:\n        /* \"#utility.yul\":3317:3405   */\n      swap2\n      pop\n        /* \"#utility.yul\":3133:3411   */\n      pop\n        /* \"#utility.yul\":3071:3411   */\n      swap3\n      swap2\n      pop\n      pop\n      jump\t// out\n        /* \"#utility.yul\":3417:3926   */\n    tag_18:\n        /* \"#utility.yul\":3486:3492   */\n      0x00\n        /* \"#utility.yul\":3535:3537   */\n      0x20\n        /* \"#utility.yul\":3523:3532   */\n      dup3\n        /* \"#utility.yul\":3514:3521   */\n      dup5\n        /* \"#utility.yul\":3510:3533   */\n      sub\n        /* \"#utility.yul\":3506:3538   */\n      slt\n        /* \"#utility.yul\":3503:3622   */\n      iszero\n      tag_108\n      jumpi\n        /* \"#utility.yul\":3541:3620   */\n      tag_109\n      tag_47\n      jump\t// in\n    tag_109:\n        /* \"#utility.yul\":3503:3622   */\n    tag_108:\n        /* \"#utility.yul\":3689:3690   */\n      0x00\n        /* \"#utility.yul\":3678:3687   */\n      dup3\n        /* \"#utility.yul\":3674:3691   */\n      add\n        /* \"#utility.yul\":3661:3692   */\n      calldataload\n        /* \"#utility.yul\":3719:3737   */\n      0xffffffffffffffff\n        /* \"#utility.yul\":3711:3717   */\n      dup2\n        /* \"#utility.yul\":3708:3738   */\n      gt\n        /* \"#utility.yul\":3705:3822   */\n      iszero\n      tag_110\n      jumpi\n        /* \"#utility.yul\":3741:3820   */\n      tag_111\n      tag_48\n      jump\t// in\n    tag_111:\n        /* \"#utility.yul\":3705:3822   */\n    tag_110:\n        /* \"#utility.yul\":3846:3909   */\n      tag_112\n        /* \"#utility.yul\":3901:3908   */\n      dup5\n        /* \"#utility.yul\":3892:3898   */\n      dup3\n        /* \"#utility.yul\":3881:3890   */\n      dup6\n        /* \"#utility.yul\":3877:3899   */\n      add\n        /* \"#utility.yul\":3846:3909   */\n      tag_58\n      jump\t// in\n    tag_112:\n        /* \"#utility.yul\":3836:3909   */\n      swap2\n      pop\n        /* \"#utility.yul\":3632:3919   */\n      pop\n        /* \"#utility.yul\":3417:3926   */\n      swap3\n      swap2\n      pop\n      pop\n      jump\t// out\n        /* \"#utility.yul\":3932:4058   */\n    tag_59:\n        /* \"#utility.yul\":3969:3976   */\n      0x00\n        /* \"#utility.yul\":4009:4051   */\n      0xffffffffffffffffffffffffffffffffffffffff\n        /* \"#utility.yul\":4002:4007   */\n      dup3\n        /* \"#utility.yul\":3998:4052   */\n      and\n        /* \"#utility.yul\":3987:4052   */\n      swap1\n      pop\n        /* \"#utility.yul\":3932:4058   */\n      swap2\n      swap1\n      pop\n      jump\t// out\n        /* \"#utility.yul\":4064:4160   */\n    tag_60:\n        /* \"#utility.yul\":4101:4108   */\n      0x00\n        /* \"#utility.yul\":4130:4154   */\n      tag_115\n        /* \"#utility.yul\":4148:4153   */\n      dup3\n        /* \"#utility.yul\":4130:4154   */\n      tag_59\n      jump\t// in\n    tag_115:\n        /* \"#utility.yul\":4119:4154   */\n      swap1\n      pop\n        /* \"#utility.yul\":4064:4160   */\n      swap2\n      swap1\n      pop\n      jump\t// out\n        /* \"#utility.yul\":4166:4284   */\n    tag_61:\n        /* \"#utility.yul\":4253:4277   */\n      tag_117\n        /* \"#utility.yul\":4271:4276   */\n      dup2\n        /* \"#utility.yul\":4253:4277   */\n      tag_60\n      jump\t// in\n    tag_117:\n        /* \"#utility.yul\":4248:4251   */\n      dup3\n        /* \"#utility.yul\":4241:4278   */\n      mstore\n        /* \"#utility.yul\":4166:4284   */\n      pop\n      pop\n      jump\t// out\n        /* \"#utility.yul\":4290:4512   */\n    tag_27:\n        /* \"#utility.yul\":4383:4387   */\n      0x00\n        /* \"#utility.yul\":4421:4423   */\n      0x20\n        /* \"#utility.yul\":4410:4419   */\n      dup3\n        /* \"#utility.yul\":4406:4424   */\n      add\n        /* \"#utility.yul\":4398:4424   */\n      swap1\n      pop\n        /* \"#utility.yul\":4434:4505   */\n      tag_119\n        /* \"#utility.yul\":4502:4503   */\n      0x00\n        /* \"#utility.yul\":4491:4500   */\n      dup4\n        /* \"#utility.yul\":4487:4504   */\n      add\n        /* \"#utility.yul\":4478:4484   */\n      dup5\n        /* \"#utility.yul\":4434:4505   */\n      tag_61\n      jump\t// in\n    tag_119:\n        /* \"#utility.yul\":4290:4512   */\n      swap3\n      swap2\n      pop\n      pop\n      jump\t// out\n        /* \"#utility.yul\":4518:4617   */\n    tag_62:\n        /* \"#utility.yul\":4570:4576   */\n      0x00\n        /* \"#utility.yul\":4604:4609   */\n      dup2\n        /* \"#utility.yul\":4598:4610   */\n      mload\n        /* \"#utility.yul\":4588:4610   */\n      swap1\n      pop\n        /* \"#utility.yul\":4518:4617   */\n      swap2\n      swap1\n      pop\n      jump\t// out\n        /* \"#utility.yul\":4623:4771   */\n    tag_63:\n        /* \"#utility.yul\":4725:4736   */\n      0x00\n        /* \"#utility.yul\":4762:4765   */\n      dup2\n        /* \"#utility.yul\":4747:4765   */\n      swap1\n      pop\n        /* \"#utility.yul\":4623:4771   */\n      swap3\n      swap2\n      pop\n      pop\n      jump\t// out\n        /* \"#utility.yul\":4777:4916   */\n    tag_64:\n        /* \"#utility.yul\":4866:4872   */\n      dup3\n        /* \"#utility.yul\":4861:4864   */\n      dup2\n        /* \"#utility.yul\":4856:4859   */\n      dup4\n        /* \"#utility.yul\":4850:4873   */\n      mcopy\n        /* \"#utility.yul\":4907:4908   */\n      0x00\n        /* \"#utility.yul\":4898:4904   */\n      dup4\n        /* \"#utility.yul\":4893:4896   */\n      dup4\n        /* \"#utility.yul\":4889:4905   */\n      add\n        /* \"#utility.yul\":4882:4909   */\n      mstore\n        /* \"#utility.yul\":4777:4916   */\n      pop\n      pop\n      pop\n      jump\t// out\n        /* \"#utility.yul\":4922:5312   */\n    tag_65:\n        /* \"#utility.yul\":5028:5031   */\n      0x00\n        /* \"#utility.yul\":5056:5095   */\n      tag_124\n        /* \"#utility.yul\":5089:5094   */\n      dup3\n        /* \"#utility.yul\":5056:5095   */\n      tag_62\n      jump\t// in\n    tag_124:\n        /* \"#utility.yul\":5111:5200   */\n      tag_125\n        /* \"#utility.yul\":5193:5199   */\n      dup2\n        /* \"#utility.yul\":5188:5191   */\n      dup6\n        /* \"#utility.yul\":5111:5200   */\n      tag_63\n      jump\t// in\n    tag_125:\n        /* \"#utility.yul\":5104:5200   */\n      swap4\n      pop\n        /* \"#utility.yul\":5209:5274   */\n      tag_126\n        /* \"#utility.yul\":5267:5273   */\n      dup2\n        /* \"#utility.yul\":5262:5265   */\n      dup6\n        /* \"#utility.yul\":5255:5259   */\n      0x20\n        /* \"#utility.yul\":5248:5253   */\n      dup7\n        /* \"#utility.yul\":5244:5260   */\n      add\n        /* \"#utility.yul\":5209:5274   */\n      tag_64\n      jump\t// in\n    tag_126:\n        /* \"#utility.yul\":5299:5305   */\n      dup1\n        /* \"#utility.yul\":5294:5297   */\n      dup5\n        /* \"#utility.yul\":5290:5306   */\n      add\n        /* \"#utility.yul\":5283:5306   */\n      swap2\n      pop\n        /* \"#utility.yul\":5032:5312   */\n      pop\n        /* \"#utility.yul\":4922:5312   */\n      swap3\n      swap2\n      pop\n      pop\n      jump\t// out\n        /* \"#utility.yul\":5318:5593   */\n    tag_33:\n        /* \"#utility.yul\":5450:5453   */\n      0x00\n        /* \"#utility.yul\":5472:5567   */\n      tag_128\n        /* \"#utility.yul\":5563:5566   */\n      dup3\n        /* \"#utility.yul\":5554:5560   */\n      dup5\n        /* \"#utility.yul\":5472:5567   */\n      tag_65\n      jump\t// in\n    tag_128:\n        /* \"#utility.yul\":5465:5567   */\n      swap2\n      pop\n        /* \"#utility.yul\":5584:5587   */\n      dup2\n        /* \"#utility.yul\":5577:5587   */\n      swap1\n      pop\n        /* \"#utility.yul\":5318:5593   */\n      swap3\n      swap2\n      pop\n      pop\n      jump\t// out\n        /* \"#utility.yul\":5599:5779   */\n    tag_66:\n        /* \"#utility.yul\":5647:5724   */\n      0x4e487b7100000000000000000000000000000000000000000000000000000000\n        /* \"#utility.yul\":5644:5645   */\n      0x00\n        /* \"#utility.yul\":5637:5725   */\n      mstore\n        /* \"#utility.yul\":5744:5748   */\n      0x11\n        /* \"#utility.yul\":5741:5742   */\n      0x04\n        /* \"#utility.yul\":5734:5749   */\n      mstore\n        /* \"#utility.yul\":5768:5772   */\n      0x24\n        /* \"#utility.yul\":5765:5766   */\n      0x00\n        /* \"#utility.yul\":5758:5773   */\n      revert\n        /* \"#utility.yul\":5785:6018   */\n    tag_37:\n        /* \"#utility.yul\":5824:5827   */\n      0x00\n        /* \"#utility.yul\":5847:5871   */\n      tag_131\n        /* \"#utility.yul\":5865:5870   */\n      dup3\n        /* \"#utility.yul\":5847:5871   */\n      tag_42\n      jump\t// in\n    tag_131:\n        /* \"#utility.yul\":5838:5871   */\n      swap2\n      pop\n        /* \"#utility.yul\":5893:5959   */\n      0xffffffffffffffffffffffffffffffffffffffffffffffffffffffffffffffff\n        /* \"#utility.yul\":5886:5891   */\n      dup3\n        /* \"#utility.yul\":5883:5960   */\n      sub\n        /* \"#utility.yul\":5880:5983   */\n      tag_132\n      jumpi\n        /* \"#utility.yul\":5963:5981   */\n      tag_133\n      tag_66\n      jump\t// in\n    tag_133:\n        /* \"#utility.yul\":5880:5983   */\n    tag_132:\n        /* \"#utility.yul\":6010:6011   */\n      0x01\n        /* \"#utility.yul\":6003:6008   */\n      dup3\n        /* \"#utility.yul\":5999:6012   */\n      add\n        /* \"#utility.yul\":5992:6012   */\n      swap1\n      pop\n        /* \"#utility.yul\":5785:6018   */\n      swap2\n      swap1\n      pop\n      jump\t// out\n\n    auxdata: 0xa2646970667358221220adbfcb53024503bdae2f000e863b7236c9a5832b3411e802f3f4aec6a3ebd1de64736f6c63430008190033\n}\n","bytecode":{"linkReferences":{},"object":"608060405234801561000f575f80fd5b5060405161075a38038061075a833981810160405281019061003191906100dc565b8060015f6101000a81548173ffffffffffffffffffffffffffffffffffffffff021916908373ffffffffffffffffffffffffffffffffffffffff1602179055505f60028190555050610107565b5f80fd5b5f73ffffffffffffffffffffffffffffffffffffffff82169050919050565b5f6100ab82610082565b9050919050565b6100bb816100a1565b81146100c5575f80fd5b50565b5f815190506100d6816100b2565b92915050565b5f602082840312156100f1576100f061007e565b5b5f6100fe848285016100c8565b91505092915050565b610646806101145f395ff3fe608060405234801561000f575f80fd5b5060043610610055575f3560e01c80634cafdb6d146100595780635443a0ce14610077578063667bd3ca146100955780638bf3f624146100b1578063bab861c1146100e1575b5f80fd5b6100616100ff565b60405161006e91906102fc565b60405180910390f35b61007f610105565b60405161008c919061032f565b60405180910390f35b6100af60048036038101906100aa9190610495565b61015b565b005b6100cb60048036038101906100c69190610495565b610235565b6040516100d8919061032f565b60405180910390f35b6100e96102bf565b6040516100f6919061051b565b60405180910390f35b60025481565b5f3373ffffffffffffffffffffffffffffffffffffffff1660015f9054906101000a900473ffffffffffffffffffffffffffffffffffffffff1673ffffffffffffffffffffffffffffffffffffffff1614905090565b60015f9054906101000a900473ffffffffffffffffffffffffffffffffffffffff1673ffffffffffffffffffffffffffffffffffffffff163373ffffffffffffffffffffffffffffffffffffffff16146101b3575f80fd5b5f816040516101c29190610586565b90815260200160405180910390205f9054906101000a900460ff16156101e6575f80fd5b60015f826040516101f79190610586565b90815260200160405180910390205f6101000a81548160ff02191690831515021790555060025f81548092919061022d906105c9565b919050555050565b5f60015f9054906101000a900473ffffffffffffffffffffffffffffffffffffffff1673ffffffffffffffffffffffffffffffffffffffff163373ffffffffffffffffffffffffffffffffffffffff161461028e575f80fd5b5f8260405161029d9190610586565b90815260200160405180910390205f9054906101000a900460ff169050919050565b60015f9054906101000a900473ffffffffffffffffffffffffffffffffffffffff1681565b5f819050919050565b6102f6816102e4565b82525050565b5f60208201905061030f5f8301846102ed565b92915050565b5f8115159050919050565b61032981610315565b82525050565b5f6020820190506103425f830184610320565b92915050565b5f604051905090565b5f80fd5b5f80fd5b5f80fd5b5f80fd5b5f601f19601f8301169050919050565b7f4e487b71000000000000000000000000000000000000000000000000000000005f52604160045260245ffd5b6103a782610361565b810181811067ffffffffffffffff821117156103c6576103c5610371565b5b80604052505050565b5f6103d8610348565b90506103e4828261039e565b919050565b5f67ffffffffffffffff82111561040357610402610371565b5b61040c82610361565b9050602081019050919050565b828183375f83830152505050565b5f610439610434846103e9565b6103cf565b9050828152602081018484840111156104555761045461035d565b5b610460848285610419565b509392505050565b5f82601f83011261047c5761047b610359565b5b813561048c848260208601610427565b91505092915050565b5f602082840312156104aa576104a9610351565b5b5f82013567ffffffffffffffff8111156104c7576104c6610355565b5b6104d384828501610468565b91505092915050565b5f73ffffffffffffffffffffffffffffffffffffffff82169050919050565b5f610505826104dc565b9050919050565b610515816104fb565b82525050565b5f60208201905061052e5f83018461050c565b92915050565b5f81519050919050565b5f81905092915050565b8281835e5f83830152505050565b5f61056082610534565b61056a818561053e565b935061057a818560208601610548565b80840191505092915050565b5f6105918284610556565b915081905092915050565b7f4e487b71000000000000000000000000000000000000000000000000000000005f52601160045260245ffd5b5f6105d3826102e4565b91507fffffffffffffffffffffffffffffffffffffffffffffffffffffffffffffffff82036106055761060461059c565b5b60018201905091905056fea2646970667358221220adbfcb53024503bdae2f000e863b7236c9a5832b3411e802f3f4aec6a3ebd1de64736f6c63430008190033","opcodes":"PUSH1 0x80 PUSH1 0x40 MSTORE CALLVALUE DUP1 ISZERO PUSH2 0xF JUMPI PUSH0 DUP1 REVERT JUMPDEST POP PUSH1 0x40 MLOAD PUSH2 0x75A CODESIZE SUB DUP1 PUSH2 0x75A DUP4 CODECOPY DUP2 DUP2 ADD PUSH1 0x40 MSTORE DUP2 ADD SWAP1 PUSH2 0x31 SWAP2 SWAP1 PUSH2 0xDC JUMP JUMPDEST DUP1 PUSH1 0x1 PUSH0 PUSH2 0x100 EXP DUP2 SLOAD DUP2 PUSH20 0xFFFFFFFFFFFFFFFFFFFFFFFFFFFFFFFFFFFFFFFF MUL NOT AND SWAP1 DUP4 PUSH20 0xFFFFFFFFFFFFFFFFFFFFFFFFFFFFFFFFFFFFFFFF AND MUL OR SWAP1 SSTORE POP PUSH0 PUSH1 0x2 DUP2 SWAP1 SSTORE POP POP PUSH2 0x107 JUMP JUMPDEST PUSH0 DUP1 REVERT JUMPDEST PUSH0 PUSH20 0xFFFFFFFFFFFFFFFFFFFFFFFFFFFFFFFFFFFFFFFF DUP3 AND SWAP1 POP SWAP2 SWAP1 POP JUMP JUMPDEST PUSH0 PUSH2 0xAB DUP3 PUSH2 0x82 JUMP JUMPDEST SWAP1 POP SWAP2 SWAP1 POP JUMP JUMPDEST PUSH2 0xBB DUP2 PUSH2 0xA1 JUMP JUMPDEST DUP2 EQ PUSH2 0xC5 JUMPI PUSH0 DUP1 REVERT JUMPDEST POP JUMP JUMPDEST PUSH0 DUP2 MLOAD SWAP1 POP PUSH2 0xD6 DUP2 PUSH2 0xB2 JUMP JUMPDEST SWAP3 SWAP2 POP POP JUMP JUMPDEST PUSH0 PUSH1 0x20 DUP3 DUP5 SUB SLT ISZERO PUSH2 0xF1 JUMPI PUSH2 0xF0 PUSH2 0x7E JUMP JUMPDEST JUMPDEST PUSH0 PUSH2 0xFE DUP5 DUP3 DUP6 ADD PUSH2 0xC8 JUMP JUMPDEST SWAP2 POP POP SWAP3 SWAP2 POP POP JUMP JUMPDEST PUSH2 0x646 DUP1 PUSH2 0x114 PUSH0 CODECOPY PUSH0 RETURN INVALID PUSH1 0x80 PUSH1 0x40 MSTORE CALLVALUE DUP1 ISZERO PUSH2 0xF JUMPI PUSH0 DUP1 REVERT JUMPDEST POP PUSH1 0x4 CALLDATASIZE LT PUSH2 0x55 JUMPI PUSH0 CALLDATALOAD PUSH1 0xE0 SHR DUP1 PUSH4 0x4CAFDB6D EQ PUSH2 0x59 JUMPI DUP1 PUSH4 0x5443A0CE EQ PUSH2 0x77 JUMPI DUP1 PUSH4 0x667BD3CA EQ PUSH2 0x95 JUMPI DUP1 PUSH4 0x8BF3F624 EQ PUSH2 0xB1 JUMPI DUP1 PUSH4 0xBAB861C1 EQ PUSH2 0xE1 JUMPI JUMPDEST PUSH0 DUP1 REVERT JUMPDEST PUSH2 0x61 PUSH2 0xFF JUMP JUMPDEST PUSH1 0x40 MLOAD PUSH2 0x6E SWAP2 SWAP1 PUSH2 0x2FC JUMP JUMPDEST PUSH1 0x40 MLOAD DUP1 SWAP2 SUB SWAP1 RETURN JUMPDEST PUSH2 0x7F PUSH2 0x105 JUMP JUMPDEST PUSH1 0x40 MLOAD PUSH2 0x8C SWAP2 SWAP1 PUSH2 0x32F JUMP JUMPDEST PUSH1 0x40 MLOAD DUP1 SWAP2 SUB SWAP1 RETURN JUMPDEST PUSH2 0xAF PUSH1 0x4 DUP1 CALLDATASIZE SUB DUP2 ADD SWAP1 PUSH2 0xAA SWAP2 SWAP1 PUSH2 0x495 JUMP JUMPDEST PUSH2 0x15B JUMP JUMPDEST STOP JUMPDEST PUSH2 0xCB PUSH1 0x4 DUP1 CALLDATASIZE SUB DUP2 ADD SWAP1 PUSH2 0xC6 SWAP2 SWAP1 PUSH2 0x495 JUMP JUMPDEST PUSH2 0x235 JUMP JUMPDEST PUSH1 0x40 MLOAD PUSH2 0xD8 SWAP2 SWAP1 PUSH2 0x32F JUMP JUMPDEST PUSH1 0x40 MLOAD DUP1 SWAP2 SUB SWAP1 RETURN JUMPDEST PUSH2 0xE9 PUSH2 0x2BF JUMP JUMPDEST PUSH1 0x40 MLOAD PUSH2 0xF6 SWAP2 SWAP1 PUSH2 0x51B JUMP JUMPDEST PUSH1 0x40 MLOAD DUP1 SWAP2 SUB SWAP1 RETURN JUMPDEST PUSH1 0x2 SLOAD DUP2 JUMP JUMPDEST PUSH0 CALLER PUSH20 0xFFFFFFFFFFFFFFFFFFFFFFFFFFFFFFFFFFFFFFFF AND PUSH1 0x1 PUSH0 SWAP1 SLOAD SWAP1 PUSH2 0x100 EXP SWAP1 DIV PUSH20 0xFFFFFFFFFFFFFFFFFFFFFFFFFFFFFFFFFFFFFFFF AND PUSH20 0xFFFFFFFFFFFFFFFFFFFFFFFFFFFFFFFFFFFFFFFF AND EQ SWAP1 POP SWAP1 JUMP JUMPDEST PUSH1 0x1 PUSH0 SWAP1 SLOAD SWAP1 PUSH2 0x100 EXP SWAP1 DIV PUSH20 0xFFFFFFFFFFFFFFFFFFFFFFFFFFFFFFFFFFFFFFFF AND PUSH20 0xFFFFFFFFFFFFFFFFFFFFFFFFFFFFFFFFFFFFFFFF AND CALLER PUSH20 0xFFFFFFFFFFFFFFFFFFFFFFFFFFFFFFFFFFFFFFFF AND EQ PUSH2 0x1B3 JUMPI PUSH0 DUP1 REVERT JUMPDEST PUSH0 DUP2 PUSH1 0x40 MLOAD PUSH2 0x1C2 SWAP2 SWAP1 PUSH2 0x586 JUMP JUMPDEST SWAP1 DUP2 MSTORE PUSH1 0x20 ADD PUSH1 0x40 MLOAD DUP1 SWAP2 SUB SWAP1 KECCAK256 PUSH0 SWAP1 SLOAD SWAP1 PUSH2 0x100 EXP SWAP1 DIV PUSH1 0xFF AND ISZERO PUSH2 0x1E6 JUMPI PUSH0 DUP1 REVERT JUMPDEST PUSH1 0x1 PUSH0 DUP3 PUSH1 0x40 MLOAD PUSH2 0x1F7 SWAP2 SWAP1 PUSH2 0x586 JUMP JUMPDEST SWAP1 DUP2 MSTORE PUSH1 0x20 ADD PUSH1 0x40 MLOAD DUP1 SWAP2 SUB SWAP1 KECCAK256 PUSH0 PUSH2 0x100 EXP DUP2 SLOAD DUP2 PUSH1 0xFF MUL NOT AND SWAP1 DUP4 ISZERO ISZERO MUL OR SWAP1 SSTORE POP PUSH1 0x2 PUSH0 DUP2 SLOAD DUP1 SWAP3 SWAP2 SWAP1 PUSH2 0x22D SWAP1 PUSH2 0x5C9 JUMP JUMPDEST SWAP2 SWAP1 POP SSTORE POP POP JUMP JUMPDEST PUSH0 PUSH1 0x1 PUSH0 SWAP1 SLOAD SWAP1 PUSH2 0x100 EXP SWAP1 DIV PUSH20 0xFFFFFFFFFFFFFFFFFFFFFFFFFFFFFFFFFFFFFFFF AND PUSH20 0xFFFFFFFFFFFFFFFFFFFFFFFFFFFFFFFFFFFFFFFF AND CALLER PUSH20 0xFFFFFFFFFFFFFFFFFFFFFFFFFFFFFFFFFFFFFFFF AND EQ PUSH2 0x28E JUMPI PUSH0 DUP1 REVERT JUMPDEST PUSH0 DUP3 PUSH1 0x40 MLOAD PUSH2 0x29D SWAP2 SWAP1 PUSH2 0x586 JUMP JUMPDEST SWAP1 DUP2 MSTORE PUSH1 0x20 ADD PUSH1 0x40 MLOAD DUP1 SWAP2 SUB SWAP1 KECCAK256 PUSH0 SWAP1 SLOAD SWAP1 PUSH2 0x100 EXP SWAP1 DIV PUSH1 0xFF AND SWAP1 POP SWAP2 SWAP1 POP JUMP JUMPDEST PUSH1 0x1 PUSH0 SWAP1 SLOAD SWAP1 PUSH2 0x100 EXP SWAP1 DIV PUSH20 0xFFFFFFFFFFFFFFFFFFFFFFFFFFFFFFFFFFFFFFFF AND DUP2 JUMP JUMPDEST PUSH0 DUP2 SWAP1 POP SWAP2 SWAP1 POP JUMP JUMPDEST PUSH2 0x2F6 DUP2 PUSH2 0x2E4 JUMP JUMPDEST DUP3 MSTORE POP POP JUMP JUMPDEST PUSH0 PUSH1 0x20 DUP3 ADD SWAP1 POP PUSH2 0x30F PUSH0 DUP4 ADD DUP5 PUSH2 0x2ED JUMP JUMPDEST SWAP3 SWAP2 POP POP JUMP JUMPDEST PUSH0 DUP2 ISZERO ISZERO SWAP1 POP SWAP2 SWAP1 POP JUMP JUMPDEST PUSH2 0x329 DUP2 PUSH2 0x315 JUMP JUMPDEST DUP3 MSTORE POP POP JUMP JUMPDEST PUSH0 PUSH1 0x20 DUP3 ADD SWAP1 POP PUSH2 0x342 PUSH0 DUP4 ADD DUP5 PUSH2 0x320 JUMP JUMPDEST SWAP3 SWAP2 POP POP JUMP JUMPDEST PUSH0 PUSH1 0x40 MLOAD SWAP1 POP SWAP1 JUMP JUMPDEST PUSH0 DUP1 REVERT JUMPDEST PUSH0 DUP1 REVERT JUMPDEST PUSH0 DUP1 REVERT JUMPDEST PUSH0 DUP1 REVERT JUMPDEST PUSH0 PUSH1 0x1F NOT PUSH1 0x1F DUP4 ADD AND SWAP1 POP SWAP2 SWAP1 POP JUMP JUMPDEST PUSH32 0x4E487B7100000000000000000000000000000000000000000000000000000000 PUSH0 MSTORE PUSH1 0x41 PUSH1 0x4 MSTORE PUSH1 0x24 PUSH0 REVERT JUMPDEST PUSH2 0x3A7 DUP3 PUSH2 0x361 JUMP JUMPDEST DUP2 ADD DUP2 DUP2 LT PUSH8 0xFFFFFFFFFFFFFFFF DUP3 GT OR ISZERO PUSH2 0x3C6 JUMPI PUSH2 0x3C5 PUSH2 0x371 JUMP JUMPDEST JUMPDEST DUP1 PUSH1 0x40 MSTORE POP POP POP JUMP JUMPDEST PUSH0 PUSH2 0x3D8 PUSH2 0x348 JUMP JUMPDEST SWAP1 POP PUSH2 0x3E4 DUP3 DUP3 PUSH2 0x39E JUMP JUMPDEST SWAP2 SWAP1 POP JUMP JUMPDEST PUSH0 PUSH8 0xFFFFFFFFFFFFFFFF DUP3 GT ISZERO PUSH2 0x403 JUMPI PUSH2 0x402 PUSH2 0x371 JUMP JUMPDEST JUMPDEST PUSH2 0x40C DUP3 PUSH2 0x361 JUMP JUMPDEST SWAP1 POP PUSH1 0x20 DUP2 ADD SWAP1 POP SWAP2 SWAP1 POP JUMP JUMPDEST DUP3 DUP2 DUP4 CALLDATACOPY PUSH0 DUP4 DUP4 ADD MSTORE POP POP POP JUMP JUMPDEST PUSH0 PUSH2 0x439 PUSH2 0x434 DUP5 PUSH2 0x3E9 JUMP JUMPDEST PUSH2 0x3CF JUMP JUMPDEST SWAP1 POP DUP3 DUP2 MSTORE PUSH1 0x20 DUP2 ADD DUP5 DUP5 DUP5 ADD GT ISZERO PUSH2 0x455 JUMPI PUSH2 0x454 PUSH2 0x35D JUMP JUMPDEST JUMPDEST PUSH2 0x460 DUP5 DUP3 DUP6 PUSH2 0x419 JUMP JUMPDEST POP SWAP4 SWAP3 POP POP POP JUMP JUMPDEST PUSH0 DUP3 PUSH1 0x1F DUP4 ADD SLT PUSH2 0x47C JUMPI PUSH2 0x47B PUSH2 0x359 JUMP JUMPDEST JUMPDEST DUP2 CALLDATALOAD PUSH2 0x48C DUP5 DUP3 PUSH1 0x20 DUP7 ADD PUSH2 0x427 JUMP JUMPDEST SWAP2 POP POP SWAP3 SWAP2 POP POP JUMP JUMPDEST PUSH0 PUSH1 0x20 DUP3 DUP5 SUB SLT ISZERO PUSH2 0x4AA JUMPI PUSH2 0x4A9 PUSH2 0x351 JUMP JUMPDEST JUMPDEST PUSH0 DUP3 ADD CALLDATALOAD PUSH8 0xFFFFFFFFFFFFFFFF DUP2 GT ISZERO PUSH2 0x4C7 JUMPI PUSH2 0x4C6 PUSH2 0x355 JUMP JUMPDEST JUMPDEST PUSH2 0x4D3 DUP5 DUP3 DUP6 ADD PUSH2 0x468 JUMP JUMPDEST SWAP2 POP POP SWAP3 SWAP2 POP POP JUMP JUMPDEST PUSH0 PUSH20 0xFFFFFFFFFFFFFFFFFFFFFFFFFFFFFFFFFFFFFFFF DUP3 AND SWAP1 POP SWAP2 SWAP1 POP JUMP JUMPDEST PUSH0 PUSH2 0x505 DUP3 PUSH2 0x4DC JUMP JUMPDEST SWAP1 POP SWAP2 SWAP1 POP JUMP JUMPDEST PUSH2 0x515 DUP2 PUSH2 0x4FB JUMP JUMPDEST DUP3 MSTORE POP POP JUMP JUMPDEST PUSH0 PUSH1 0x20 DUP3 ADD SWAP1 POP PUSH2 0x52E PUSH0 DUP4 ADD DUP5 PUSH2 0x50C JUMP JUMPDEST SWAP3 SWAP2 POP POP JUMP JUMPDEST PUSH0 DUP2 MLOAD SWAP1 POP SWAP2 SWAP1 POP JUMP JUMPDEST PUSH0 DUP2 SWAP1 POP SWAP3 SWAP2 POP POP JUMP JUMPDEST DUP3 DUP2 DUP4 MCOPY PUSH0 DUP4 DUP4 ADD MSTORE POP POP POP JUMP JUMPDEST PUSH0 PUSH2 0x560 DUP3 PUSH2 0x534 JUMP JUMPDEST PUSH2 0x56A DUP2 DUP6 PUSH2 0x53E JUMP JUMPDEST SWAP4 POP PUSH2 0x57A DUP2 DUP6 PUSH1 0x20 DUP7 ADD PUSH2 0x548 JUMP JUMPDEST DUP1 DUP5 ADD SWAP2 POP POP SWAP3 SWAP2 POP POP JUMP JUMPDEST PUSH0 PUSH2 0x591 DUP3 DUP5 PUSH2 0x556 JUMP JUMPDEST SWAP2 POP DUP2 SWAP1 POP SWAP3 SWAP2 POP POP JUMP JUMPDEST PUSH32 0x4E487B7100000000000000000000000000000000000000000000000000000000 PUSH0 MSTORE PUSH1 0x11 PUSH1 0x4 MSTORE PUSH1 0x24 PUSH0 REVERT JUMPDEST PUSH0 PUSH2 0x5D3 DUP3 PUSH2 0x2E4 JUMP JUMPDEST SWAP2 POP PUSH32 0xFFFFFFFFFFFFFFFFFFFFFFFFFFFFFFFFFFFFFFFFFFFFFFFFFFFFFFFFFFFFFFFF DUP3 SUB PUSH2 0x605 JUMPI PUSH2 0x604 PUSH2 0x59C JUMP JUMPDEST JUMPDEST PUSH1 0x1 DUP3 ADD SWAP1 POP SWAP2 SWAP1 POP JUMP INVALID LOG2 PUSH5 0x6970667358 0x22 SLT KECCAK256 0xAD 0xBF 0xCB MSTORE8 MUL GASLIMIT SUB 0xBD 0xAE 0x2F STOP 0xE DUP7 EXTCODESIZE PUSH19 0x36C9A5832B3411E802F3F4AEC6A3EBD1DE6473 PUSH16 0x6C634300081900330000000000000000 "},"gasEstimates":{"creation":{"codeDepositCost":"321200","executionCost":"infinite","totalCost":"infinite"},"external":{"collect(string)":"infinite","collectionTotal()":"2403","hasCollected(string)":"infinite","isTrainer()":"2490","trainer()":"2574"}},"methodIdentifiers":{"collect(string)":"667bd3ca","collectionTotal()":"4cafdb6d","hasCollected(string)":"8bf3f624","isTrainer()":"5443a0ce","trainer()":"bab861c1"}},"storageLayout":{"storage":[{"astId":75,"contract":"Pokedex.sol:Pokedex","label":"collection","offset":0,"slot":"0","type":"t_mapping(t_string_memory_ptr,t_bool)"},{"astId":77,"contract":"Pokedex.sol:Pokedex","label":"trainer","offset":0,"slot":"1","type":"t_address"},{"astId":79,"contract":"Pokedex.sol:Pokedex","label":"collectionTotal","offset":0,"slot":"2","type":"t_uint256"}],"types":{"t_address":{"encoding":"inplace","label":"address","numberOfBytes":"20"},"t_bool":{"encoding":"inplace","label":"bool","numberOfBytes":"1"},"t_mapping(t_string_memory_ptr,t_bool)":{"encoding":"mapping","key":"t_string_memory_ptr","label":"mapping(string => bool)","numberOfBytes":"32","value":"t_bool"},"t_string_memory_ptr":{"encoding":"bytes","label":"string","numberOfBytes":"32"},"t_uint256":{"encoding":"inplace","label":"uint256","numberOfBytes":"32"}}},"userdoc":{"kind":"user","methods":{},"version":1}}